:100000000C942A000C9482000C94AB000C94D40045
:100010000C9447000C9447000C9463010C94590114
:100020000C9447000C944F010C9426010C94FD0095
:100030000C9447000C9447000C9447000C94470024
:100040000C9459000C9447000C9447000C94470002
:100050000C94470011241FBECFE5D8E0DEBFCDBF12
:1000600010E0A0E6B0E0EEEEF3E002C005900D92E5
:10007000AC36B107D9F720E0ACE6B0E001C01D9284
:10008000A837B207E1F70E944D000C94F5010C94DB
:1000900000005D9BFECF8CB9089580E690E00E9441
:1000A0006D0181E40E9449000E94CF010E94CB01B2
:1000B000FBCF1F920F920FB60F9211242F933F93F5
:1000C0004F935F936F937F938F939F93AF93BF9360
:1000D000EF93FF93E0917600F0917700309709F06D
:1000E0000995FF91EF91BF91AF919F918F917F9172
:1000F0006F915F914F913F912F910F900FBE0F9095
:100100001F9018951F920F920FB60F9211242F93E4
:100110003F934F935F936F937F938F939F93AF938F
:10012000BF93EF93FF93E0916C00F0916D003097D7
:1001300009F00995FF91EF91BF91AF919F918F9138
:100140007F916F915F914F913F912F910F900FBED3
:100150000F901F9018951F920F920FB60F921124B7
:100160002F933F934F935F936F937F938F939F93BF
:10017000AF93BF93EF93FF93E0916E00F0916F0008
:10018000309709F00995FF91EF91BF91AF919F9141
:100190008F917F916F915F914F913F912F910F9030
:1001A0000FBE0F901F9018951F920F920FB60F92CF
:1001B00011242F933F934F935F936F937F938F936C
:1001C0009F93AF93BF93EF93FF93E0917000F091F3
:1001D0007100309709F00995FF91EF91BF91AF91B0
:1001E0009F918F917F916F915F914F913F912F914F
:1001F0000F900FBE0F901F9018951F920F920FB681
:100200000F9211242F933F934F935F936F937F939C
:100210008F939F93AF93BF93EF93FF93E0917400FD
:10022000F0917500309709F00995FF91EF91BF911A
:10023000AF919F918F917F916F915F914F913F917E
:100240002F910F900FBE0F901F9018951F920F9235
:100250000FB60F9211242F933F934F935F936F9399
:100260007F938F939F93AF93BF93EF93FF93E0910F
:100270007200F0917300309709F00995FF91EF91AA
:10028000BF91AF919F918F917F916F915F914F91AE
:100290003F912F910F900FBE0F901F9018951F92B6
:1002A0000F920FB60F9211240F900FBE0F901F9058
:1002B00018951F920F920FB60F9211240F900FBE38
:1002C0000F901F9018951F920F920FB60F92112446
:1002D0000F900FBE0F901F901895FC018FB78F776E
:1002E0008FBF3081828123819181832B822B892B47
:1002F000806880BD8081803421F490B58285892B0F
:1003000080BD81858130E1F425813681C901A0E07D
:10031000B0E0880F991FAA1FBB1F880F991FAA1F43
:10032000BB1F9C01AD01220F331F441F551F60E00E
:1003300072E18AE790E00E94D301215031091FC089
:1003400025813681C901A0E0B0E0880F991FAA1F5E
:10035000BB1F880F991FAA1FBB1F9C01AD01220F55
:10036000331F441F551F220F331F441F551F60E0CA
:1003700072E18AE790E00E94D3012150310929B946
:1003800030BD8AB188608AB98AB180618AB98FB775
:1003900080688FBF08955D9BFECF8CB908955F9BE9
:1003A000FECF8CB10895A1E21A2EAA1BBB1BFD0142
:1003B0000DC0AA1FBB1FEE1FFF1FA217B307E40744
:1003C000F50720F0A21BB30BE40BF50B661F771F9C
:1003D000881F991F1A9469F760957095809590957C
:0E03E0009B01AC01BD01CF010895F894FFCF41
:0C03EE0000000006008025000000000058
:00000001FF
