S01600004D795F4170706C69636174696F6E2E7372656375
S11300000C942A000C94B0010C94D9010C940202B3
S11300100C9447000C9447000C942F040C94060491
S11300200C9447000C94DD030C943F030C941603CA
S11300300C9447000C9447000C9447000C94470020
S11300400C9487010C9447000C9447000C944700CF
S11300500C94470011241FBECFE5D8E0DEBFCDBF0E
S113006010E0A0E6B0E0E4E0F9E002C005900D92F3
S1130070AA37B107D9F720E0AAE7B0E001C01D9282
S1130080A839B207E1F70E9446010C9480040C944D
S11300900000CF93DF93009739F0EC010E94A70290
S11300A0CE0101960E94A702DF91CF910895EF92AD
S11300B0FF921F93CF93DF937C01162FC0E0D0E013
S11300C010C0612F70E00C2E02C0759567950A94DC
S11300D0E2F76170CE0102968E0D9F1D0E946902A7
S11300E02196C430D1056CF3DF91CF911F91FF901D
S11300F0EF900895CF93DF93EC01219661E0CE0158
S11301000E94690200C060E0CE010E946902DF9192
S1130110CF9108951F93CF93DF930097B9F0162FD3
S1130120EC0160E00E946902612F62956F70CE015C
S11301300E945700CE010E947A00612FCE010E94D6
S11301405700CE010E947A0081E001C080E0DF9177
S1130150CF911F9108950F931F93CF93DF9300972F
S113016009F44AC0EC010E94A702CE0101960E9444
S1130170A70200E010E008C0C80102968C0F9D1F82
S11301800E94A7020F5F1F4F04301105ACF387E8EC
S113019093E10197F1F700C0000068E3CE010E94EB
S11301A08A0081EE94E00197F1F700C0000068E353
S11301B0CE010E948A0092E39A95F1F768E3CE019A
S11301C00E948A0061E0CE010E948A0062E0CE01B2
S11301D00E948A0066E0CE010E948A006CE0CE0193
S11301E00E948A0068E2CE010E948A0060E8CE0183
S11301F00E948A0081E001C080E0DF91CF911F91CD
S11302000F910895CF93DF93EC0188818062887BFE
S11302108D618883898188798E618983CE010E946A
S1130220A702CE0101960E94A702DF91CF91089503
S1130230CF930E94DA039C0190916A00913051F4AB
S113024030937D0020937C0080E00E94D0031092C4
S11302506A001AC030937B0020937A0080917A0060
S113026090917B0020917C0030917D00821B930B48
S11302709093940080939300C1E0C0937E0081E04A
S11302800E94D003C0936A00CF910895CF93DF9367
S11302901F92CDB7DEB78BE690E00E94C10382E7E0
S11302A090E00E94E9028FE890E00E94020184E657
S11302B090E00E94AB0082E690E00E94490080E654
S11302C090E00E9449008BE28983CE0101960E944E
S11302D0A70200E010E017C080E00E9409030115A6
S11302E0110549F42FE78AE196E0215080409040BF
S11302F0E1F700C000008FE493EC0197F1F700C030
S113030000000F5F1F4F0536110534F3E2CF1F9233
S11303100F920FB60F9211242F933F934F935F9335
S11303206F937F938F939F93AF93BF93EF93FF93B9
S1130330E0919600F0919700309709F00995FF91AC
S1130340EF91BF91AF919F918F917F916F915F9149
S11303504F913F912F910F900FBE0F901F901895C2
S11303601F920F920FB60F9211242F933F934F9326
S11303705F936F937F938F939F93AF93BF93EF9309
S1130380FF93E0917F00F0918000309709F0099588
S1130390FF91EF91BF91AF919F918F917F916F9159
S11303A05F914F913F912F910F900FBE0F901F902F
S11303B018951F920F920FB60F9211242F933F930B
S11303C04F935F936F937F938F939F93AF93BF9359
S11303D0EF93FF93E0918100F0918200309709F050
S11303E00995FF91EF91BF91AF919F918F917F916B
S11303F06F915F914F913F912F910F900FBE0F908E
S11304001F9018951F920F920FB60F9211242F93DD
S11304103F934F935F936F937F938F939F93AF9388
S1130420BF93EF93FF93E0918300F09184003097A2
S113043009F00995FF91EF91BF91AF919F918F9131
S11304407F916F915F914F913F912F910F900FBECC
S11304500F901F901895FC01892BB9F19081969506
S1130460969596959370923031F040F4913049F01E
S1130470AAE3B0E008C0A4E3B0E005C0A1E3B0E0A3
S113048002C0A7E3B0E0662319F0613081F01FC019
S11304902C913081377081E090E002C0880F991F61
S11304A03A95E2F7809582238C9381E008953C91FC
S11304B02081277081E090E002C0880F991F2A955F
S11304C0E2F7832B8C9381E0089580E0089581E026
S11304D00895FC01892BB9F190819695969596958E
S11304E09370923031F040F4913049F0ABE3B0E0D6
S11304F008C0A5E3B0E005C0A2E3B0E002C0A8E3F1
S1130500B0E0662319F0613081F01FC02C91308176
S1130510377081E090E002C0880F991F3A95E2F7A6
S1130520809582238C9381E008953C9120812770EB
S113053081E090E002C0880F991F2A95E2F7832B8F
S11305408C9381E0089580E0089581E00895CF932D
S1130550DF93009781F0EC01688165FB662760F901
S11305600E942B02688166FB662760F9CE010E9417
S1130570690281E001C080E0DF91CF91089523B743
S1130580277B23BFFC018481813051F028F0823025
S113059059F0833081F0089589B7816089BF089547
S11305A083B7806483BF089583B7886083BF89B7A6
S11305B0826089BF089583B7886483BF83B78062EC
S11305C083BF089593B7987F93BF93B7892B83BF55
S11305D00895CF93DF930097C9F0EC018FB780683B
S11305E08FBF8881998190938800809387008A8146
S11305F09B819093860080938500CE010E94BF0268
S11306008E8182BF8D8187700E94E202DF91CF913B
S11306100895853608F084E62FEF829FC0011124E7
S113062064E670E00E9458046CBF08951F920F9214
S11306300FB60F9211242F933F934F935F936F93B1
S11306407F938F939F93AF93BF93EF93FF93E09127
S11306508700F0918800309709F00995FF91EF9198
S1130660BF91AF919F918F917F916F915F914F91C6
S11306703F912F910F900FBE0F901F9018951F92CE
S11306800F920FB60F9211242F933F934F935F93C2
S11306906F937F938F939F93AF93BF93EF93FF9346
S11306A0E0918500F0918600309709F00995FF915B
S11306B0EF91BF91AF919F918F917F916F915F91D6
S11306C04F913F912F910F900FBE0F901F9018954F
S11306D0FC019FB59C7F9FBD9EB5977E9EBD928178
S11306E0913099F028F0923021F1933061F108951E
S11306F08FB58F738FBD89B7846089BF80819181E5
S113070090938E0080938D00089589B7806189BF8E
S11307108081918190938C0080938B0086818BBD26
S113072085818ABD8EB588608EBD8FB580688FBD8A
S113073008958FB581608FBD8EB588608EBD8FB5ED
S113074080688FBD08951FBC8EB580688EBD8EB540
S113075080648EBD89B7806289BF89B78B7F89BF6A
S113076081B38F7B81BB8081918190938A00809338
S1130770890008959EB5987F9EBD9EB5892B8EBD38
S11307800895CF93DF93EC018FB780688FBFCE01BC
S11307900E9468038B810E94BA03DF91CF91089570
S11307A0811104C08EB58F7B8EBD08958EB5806493
S11307B08EBD089586B597B508951F920F920FB612
S11307C00F9211242F933F934F935F936F937F93D3
S11307D08F939F93AF93BF93EF93FF93E0918D001B
S11307E0F0918E00309709F00995FF91EF91BF9138
S11307F0AF919F918F917F916F915F914F913F91B5
S11308002F910F900FBE0F901F9018951F920F926B
S11308100FB60F9211242F933F934F935F936F93CF
S11308207F938F939F93AF93BF93EF93FF93E09145
S11308308B00F0918C00309709F00995FF91EF91AE
S1130840BF91AF919F918F917F916F915F914F91E4
S11308503F912F910F900FBE0F901F9018951F92EC
S11308600F920FB60F9211242F933F934F935F93E0
S11308706F937F938F939F93AF93BF93EF93FF9364
S1130880E0918900F0918A00309709F00995FF9171
S1130890EF91BF91AF919F918F917F916F915F91F4
S11308A04F913F912F910F900FBE0F901F9018956D
S11308B097FB072E16F4009407D077FD09D00E9409
S11308C06C0407FC05D03EF4909581959F4F0895E4
S11308D0709561957F4F0895AA1BBB1B51E107C01A
S11308E0AA1FBB1FA617B70710F0A61BB70B881FBC
S11308F0991F5A95A9F780959095BC01CD0108954B
S1070900F894FFCF95
S1130904222320213130323334350118010302010A
S10D091400000000000003010000D1
S9030000FC
